{
  "contractName": "SageCoin",
  "abi": [
    {
      "constant": true,
      "inputs": [
        {
          "name": "",
          "type": "address"
        }
      ],
      "name": "tokenHolderInfo",
      "outputs": [
        {
          "name": "holderAddress",
          "type": "address"
        },
        {
          "name": "balance",
          "type": "uint256"
        }
      ],
      "payable": false,
      "stateMutability": "view",
      "type": "function"
    },
    {
      "anonymous": false,
      "inputs": [
        {
          "indexed": false,
          "name": "_issueSize",
          "type": "uint256"
        },
        {
          "indexed": false,
          "name": "_etherPrice",
          "type": "uint256"
        }
      ],
      "name": "issueTokenEvent",
      "type": "event"
    },
    {
      "anonymous": false,
      "inputs": [
        {
          "indexed": true,
          "name": "_buyer",
          "type": "address"
        },
        {
          "indexed": false,
          "name": "_numberOfCoins",
          "type": "uint256"
        }
      ],
      "name": "buyTokenEvent",
      "type": "event"
    },
    {
      "anonymous": false,
      "inputs": [
        {
          "indexed": true,
          "name": "_from",
          "type": "address"
        },
        {
          "indexed": true,
          "name": "_to",
          "type": "address"
        },
        {
          "indexed": false,
          "name": "_numberOfTokens",
          "type": "uint256"
        }
      ],
      "name": "transferTokenEvent",
      "type": "event"
    },
    {
      "constant": false,
      "inputs": [
        {
          "name": "_totalTokens",
          "type": "uint256"
        },
        {
          "name": "_tokenPrice",
          "type": "uint256"
        }
      ],
      "name": "issueToken",
      "outputs": [],
      "payable": false,
      "stateMutability": "nonpayable",
      "type": "function"
    },
    {
      "constant": false,
      "inputs": [
        {
          "name": "merchant",
          "type": "address"
        }
      ],
      "name": "addToWhiteList",
      "outputs": [],
      "payable": false,
      "stateMutability": "nonpayable",
      "type": "function"
    },
    {
      "constant": false,
      "inputs": [
        {
          "name": "merchant",
          "type": "address"
        }
      ],
      "name": "removeFromWhiteList",
      "outputs": [],
      "payable": false,
      "stateMutability": "nonpayable",
      "type": "function"
    },
    {
      "constant": false,
      "inputs": [
        {
          "name": "_tokensToBuy",
          "type": "uint256"
        }
      ],
      "name": "buy",
      "outputs": [
        {
          "name": "",
          "type": "uint256"
        }
      ],
      "payable": true,
      "stateMutability": "payable",
      "type": "function"
    },
    {
      "constant": true,
      "inputs": [],
      "name": "getTotalTokens",
      "outputs": [
        {
          "name": "",
          "type": "uint256"
        }
      ],
      "payable": false,
      "stateMutability": "view",
      "type": "function"
    },
    {
      "constant": true,
      "inputs": [],
      "name": "getBalanceTokens",
      "outputs": [
        {
          "name": "",
          "type": "uint256"
        }
      ],
      "payable": false,
      "stateMutability": "view",
      "type": "function"
    },
    {
      "constant": true,
      "inputs": [],
      "name": "getTokensSold",
      "outputs": [
        {
          "name": "",
          "type": "uint256"
        }
      ],
      "payable": false,
      "stateMutability": "view",
      "type": "function"
    },
    {
      "constant": true,
      "inputs": [],
      "name": "getTokenPrice",
      "outputs": [
        {
          "name": "",
          "type": "uint256"
        }
      ],
      "payable": false,
      "stateMutability": "view",
      "type": "function"
    },
    {
      "constant": true,
      "inputs": [
        {
          "name": "_holderAddress",
          "type": "address"
        }
      ],
      "name": "getBalanceOfAddress",
      "outputs": [
        {
          "name": "",
          "type": "uint256"
        }
      ],
      "payable": false,
      "stateMutability": "view",
      "type": "function"
    },
    {
      "constant": true,
      "inputs": [],
      "name": "getBalance",
      "outputs": [
        {
          "name": "",
          "type": "uint256"
        }
      ],
      "payable": false,
      "stateMutability": "view",
      "type": "function"
    },
    {
      "constant": true,
      "inputs": [
        {
          "name": "_holderAddress",
          "type": "address"
        }
      ],
      "name": "getBalance",
      "outputs": [
        {
          "name": "",
          "type": "uint256"
        }
      ],
      "payable": false,
      "stateMutability": "view",
      "type": "function"
    },
    {
      "constant": true,
      "inputs": [],
      "name": "getNumberOfTokenHolders",
      "outputs": [
        {
          "name": "",
          "type": "uint256"
        }
      ],
      "payable": false,
      "stateMutability": "view",
      "type": "function"
    },
    {
      "constant": false,
      "inputs": [],
      "name": "redeemToken",
      "outputs": [
        {
          "name": "",
          "type": "uint256"
        }
      ],
      "payable": false,
      "stateMutability": "nonpayable",
      "type": "function"
    },
    {
      "constant": false,
      "inputs": [],
      "name": "withdrawFund",
      "outputs": [],
      "payable": false,
      "stateMutability": "nonpayable",
      "type": "function"
    },
    {
      "constant": false,
      "inputs": [
        {
          "name": "sender",
          "type": "address"
        },
        {
          "name": "_recipient",
          "type": "address"
        },
        {
          "name": "_numberOfTokens",
          "type": "uint256"
        }
      ],
      "name": "transfer",
      "outputs": [
        {
          "name": "",
          "type": "uint256"
        }
      ],
      "payable": false,
      "stateMutability": "nonpayable",
      "type": "function"
    },
    {
      "constant": false,
      "inputs": [],
      "name": "kill",
      "outputs": [],
      "payable": false,
      "stateMutability": "nonpayable",
      "type": "function"
    },
    {
      "constant": true,
      "inputs": [
        {
          "name": "x",
          "type": "uint256"
        }
      ],
      "name": "loop",
      "outputs": [
        {
          "name": "",
          "type": "uint256"
        }
      ],
      "payable": false,
      "stateMutability": "view",
      "type": "function"
    }
  ],
  "bytecode": "0x60606040526000600355600060045560006005556000600655336000806101000a81548173ffffffffffffffffffffffffffffffffffffffff021916908373ffffffffffffffffffffffffffffffffffffffff160217905550611044806100676000396000f3006060604052600436106100fc576000357c0100000000000000000000000000000000000000000000000000000000900463ffffffff16806301bf66481461010157806309bbedde1461013a5780630b7d796e1461016357806312065fe01461019a5780632f310bad146101c357806341c0e1b5146101ec57806347ee0394146102015780634b94f50e1461023a5780638b174e5c14610263578063a4093718146102e3578063a665c4a41461030f578063beabacc81461035c578063d96a094a146103d1578063e07fa3c1146103fd578063ee7c0db014610412578063f08b82e61461043b578063f69c9e8214610464578063f8b2cb4f1461048d575b600080fd5b341561010c57600080fd5b610138600480803573ffffffffffffffffffffffffffffffffffffffff169060200190919050506104da565b005b341561014557600080fd5b61014d610590565b6040518082815260200191505060405180910390f35b341561016e57600080fd5b610184600480803590602001909190505061059a565b6040518082815260200191505060405180910390f35b34156101a557600080fd5b6101ad6105a7565b6040518082815260200191505060405180910390f35b34156101ce57600080fd5b6101d66105f1565b6040518082815260200191505060405180910390f35b34156101f757600080fd5b6101ff6106ee565b005b341561020c57600080fd5b610238600480803573ffffffffffffffffffffffffffffffffffffffff16906020019091905050610783565b005b341561024557600080fd5b61024d610832565b6040518082815260200191505060405180910390f35b341561026e57600080fd5b61029a600480803573ffffffffffffffffffffffffffffffffffffffff1690602001909190505061083c565b604051808373ffffffffffffffffffffffffffffffffffffffff1673ffffffffffffffffffffffffffffffffffffffff1681526020018281526020019250505060405180910390f35b34156102ee57600080fd5b61030d6004808035906020019091908035906020019091905050610880565b005b341561031a57600080fd5b610346600480803573ffffffffffffffffffffffffffffffffffffffff16906020019091905050610933565b6040518082815260200191505060405180910390f35b341561036757600080fd5b6103bb600480803573ffffffffffffffffffffffffffffffffffffffff1690602001909190803573ffffffffffffffffffffffffffffffffffffffff1690602001909190803590602001909190505061097f565b6040518082815260200191505060405180910390f35b6103e76004808035906020019091905050610c7c565b6040518082815260200191505060405180910390f35b341561040857600080fd5b610410610ed5565b005b341561041d57600080fd5b610425610faa565b6040518082815260200191505060405180910390f35b341561044657600080fd5b61044e610fb8565b6040518082815260200191505060405180910390f35b341561046f57600080fd5b610477610fc2565b6040518082815260200191505060405180910390f35b341561049857600080fd5b6104c4600480803573ffffffffffffffffffffffffffffffffffffffff16906020019091905050610fcc565b6040518082815260200191505060405180910390f35b6000809054906101000a900473ffffffffffffffffffffffffffffffffffffffff1673ffffffffffffffffffffffffffffffffffffffff163373ffffffffffffffffffffffffffffffffffffffff1614151561053557600080fd5b6000600260008373ffffffffffffffffffffffffffffffffffffffff1673ffffffffffffffffffffffffffffffffffffffff16815260200190815260200160002060006101000a81548160ff02191690831515021790555050565b6000600654905090565b6000600382019050919050565b6000600160003373ffffffffffffffffffffffffffffffffffffffff1673ffffffffffffffffffffffffffffffffffffffff16815260200190815260200160002060010154905090565b60008060006105fe6105a7565b915060008211151561060f57600080fd5b60055482029050803073ffffffffffffffffffffffffffffffffffffffff163111151561063b57600080fd5b6000600160003373ffffffffffffffffffffffffffffffffffffffff1673ffffffffffffffffffffffffffffffffffffffff16815260200190815260200160002060010181905550600660008154809291906001900391905055503373ffffffffffffffffffffffffffffffffffffffff166108fc829081150290604051600060405180830381858888f1935050505015156106d657600080fd5b81600460008282540192505081905550809250505090565b6000809054906101000a900473ffffffffffffffffffffffffffffffffffffffff1673ffffffffffffffffffffffffffffffffffffffff163373ffffffffffffffffffffffffffffffffffffffff1614151561074957600080fd5b6000809054906101000a900473ffffffffffffffffffffffffffffffffffffffff1673ffffffffffffffffffffffffffffffffffffffff16ff5b600260008273ffffffffffffffffffffffffffffffffffffffff1673ffffffffffffffffffffffffffffffffffffffff16815260200190815260200160002060009054906101000a900460ff16151561082f576001600260008373ffffffffffffffffffffffffffffffffffffffff1673ffffffffffffffffffffffffffffffffffffffff16815260200190815260200160002060006101000a81548160ff0219169083151502179055505b50565b6000600554905090565b60016020528060005260406000206000915090508060000160009054906101000a900473ffffffffffffffffffffffffffffffffffffffff16908060010154905082565b6000809054906101000a900473ffffffffffffffffffffffffffffffffffffffff1673ffffffffffffffffffffffffffffffffffffffff163373ffffffffffffffffffffffffffffffffffffffff161415156108db57600080fd5b8060058190555081600381905550816004819055507f726fc828e73d73049d3d51387a9455621d23fa9d7d9e7afb4bdc45f961826b998282604051808381526020018281526020019250505060405180910390a15050565b6000600160008373ffffffffffffffffffffffffffffffffffffffff1673ffffffffffffffffffffffffffffffffffffffff168152602001908152602001600020600101549050919050565b600080600260003373ffffffffffffffffffffffffffffffffffffffff1673ffffffffffffffffffffffffffffffffffffffff16815260200190815260200160002060009054906101000a900460ff1615156109da57600080fd5b826109e486610933565b101515156109f157600080fd5b600160008573ffffffffffffffffffffffffffffffffffffffff1673ffffffffffffffffffffffffffffffffffffffff168152602001908152602001600020905060008160000160009054906101000a900473ffffffffffffffffffffffffffffffffffffffff1673ffffffffffffffffffffffffffffffffffffffff161415610b4a5760408051908101604052808573ffffffffffffffffffffffffffffffffffffffff16815260200184815250600160008673ffffffffffffffffffffffffffffffffffffffff1673ffffffffffffffffffffffffffffffffffffffff16815260200190815260200160002060008201518160000160006101000a81548173ffffffffffffffffffffffffffffffffffffffff021916908373ffffffffffffffffffffffffffffffffffffffff16021790555060208201518160010155905050600660008154809291906001019190505550610b5d565b8281600101600082825401925050819055505b82600160008773ffffffffffffffffffffffffffffffffffffffff1673ffffffffffffffffffffffffffffffffffffffff168152602001908152602001600020600101600082825403925050819055506000600160008773ffffffffffffffffffffffffffffffffffffffff1673ffffffffffffffffffffffffffffffffffffffff168152602001908152602001600020600101541415610c0c57600660008154809291906001900391905055505b8373ffffffffffffffffffffffffffffffffffffffff163373ffffffffffffffffffffffffffffffffffffffff167f7d740515fbaed0c26d11c00947039137f9720825e09415e8c35ea6f61cb8dc10856040518082815260200191505060405180910390a3829150509392505050565b60008060006004548411151515610c9257600080fd5b60055434811515610c9f57fe5b048411151515610cae57600080fd5b600160003373ffffffffffffffffffffffffffffffffffffffff1673ffffffffffffffffffffffffffffffffffffffff168152602001908152602001600020915060008260000160009054906101000a900473ffffffffffffffffffffffffffffffffffffffff1673ffffffffffffffffffffffffffffffffffffffff161415610e075760408051908101604052803373ffffffffffffffffffffffffffffffffffffffff16815260200185815250600160003373ffffffffffffffffffffffffffffffffffffffff1673ffffffffffffffffffffffffffffffffffffffff16815260200190815260200160002060008201518160000160006101000a81548173ffffffffffffffffffffffffffffffffffffffff021916908373ffffffffffffffffffffffffffffffffffffffff16021790555060208201518160010155905050600660008154809291906001019190505550610e1a565b8382600101600082825401925050819055505b836004600082825403925050819055506005548402340390506000811115610e7d573373ffffffffffffffffffffffffffffffffffffffff166108fc829081150290604051600060405180830381858888f193505050501515610e7c57600080fd5b5b3373ffffffffffffffffffffffffffffffffffffffff167fd3e66ab2107a3482154f9ae2cd662178cc85430c9bf13812d7fb64ab148a7a50856040518082815260200191505060405180910390a28392505050919050565b6000809054906101000a900473ffffffffffffffffffffffffffffffffffffffff1673ffffffffffffffffffffffffffffffffffffffff163373ffffffffffffffffffffffffffffffffffffffff16141515610f3057600080fd5b6000809054906101000a900473ffffffffffffffffffffffffffffffffffffffff1673ffffffffffffffffffffffffffffffffffffffff166108fc3073ffffffffffffffffffffffffffffffffffffffff16319081150290604051600060405180830381858888f193505050501515610fa857600080fd5b565b600060045460035403905090565b6000600354905090565b6000600454905090565b6000600160008373ffffffffffffffffffffffffffffffffffffffff1673ffffffffffffffffffffffffffffffffffffffff1681526020019081526020016000206001015490509190505600a165627a7a723058203a739a40f10a8741fa369f71a501a4d96b0f48c08d80663fdbc29fb1ee9aa7650029",
  "source": "pragma solidity ^0.4.15;\n\nimport \"./Owned.sol\";\n\ncontract SageCoin is Owned {\n  // structure for tokenHolder of SageCoin\n    struct TokenHolder {\n      address holderAddress; // The address of the voter\n      uint balance;    // The total no. of tokens this voter owns\n    }\n\n    /* mapping is equivalent to an associate array or hash\n     The key of the mapping is candidate name stored as type bytes32 and value is\n     an unsigned integer which used to store the vote count\n     */\n    mapping (address => TokenHolder) public tokenHolderInfo;\n    mapping (address => bool) whiteList;\n\n    // Total no. of tokens available for this election\n    uint totalTokens = 0;\n    // Total no. of tokens still available for purchase\n    uint balanceTokens = 0;\n    // Price per token\n    uint tokenPrice = 0;\n\n    uint numberOfTokenHolder = 0;\n\n    event issueTokenEvent (uint _issueSize, uint _etherPrice);\n\n    event buyTokenEvent (address indexed _buyer, uint _numberOfCoins);\n\n    event transferTokenEvent(address indexed _from, address indexed _to, uint _numberOfTokens);\n\n    /* When the contract is deployed on the blockchain, we will initialize\n     the total number of tokens for sale, cost per token and all the candidates\n    function SageCoin() public {\n      owner = msg.sender;\n      totalTokens = 0;\n      balanceTokens = 0;\n      tokenPrice = 0;\n    }\n    */\n\n    // check for whitelisting\n    modifier onlyWhitelist() {\n      require(whiteList[msg.sender]);\n      _;\n    }\n    /*\n     Issue new token to support the event economy\n     */\n    function issueToken(uint _totalTokens, uint _tokenPrice) onlyOwner public {\n      tokenPrice = _tokenPrice;\n      totalTokens = _totalTokens;\n      balanceTokens = _totalTokens;\n      issueTokenEvent(_totalTokens, _tokenPrice);\n    }\n\n//    function addToWhiteList(address merchant) onlyOwner public {\n   function addToWhiteList(address merchant) public {\n\n      if (!whiteList[merchant])\n        whiteList[merchant] = true;\n    }\n\n    function removeFromWhiteList(address merchant) onlyOwner public {\n      whiteList[merchant] = false;\n    }\n\n    /* This function is used to purchase the tokens. Note the keyword 'payable'\n     below. By just adding that one keyword to a function, your contract can\n     now accept Ether from anyone who calls this function. Accepting money can\n     not get any easier than this!\n     */\n    function buy(uint _tokensToBuy) payable public returns (uint) {\n      require(_tokensToBuy <= balanceTokens);\n      require(_tokensToBuy <= msg.value / tokenPrice);\n\n      TokenHolder storage holder = tokenHolderInfo[msg.sender];\n\n      if (holder.holderAddress == 0x0) {\n        tokenHolderInfo[msg.sender] = TokenHolder(msg.sender, _tokensToBuy);\n        numberOfTokenHolder++;\n      }\n      else {\n        holder.balance += _tokensToBuy;\n      }\n      balanceTokens -= _tokensToBuy;\n\n      // return remaining ethers\n      uint toReturn = msg.value - (_tokensToBuy * tokenPrice);\n      if (toReturn > 0) {\n        msg.sender.transfer(toReturn);\n      }\n      buyTokenEvent(msg.sender, _tokensToBuy);\n      return _tokensToBuy;\n    }\n\n    /* to query the total number of tokens\n     */\n    function getTotalTokens() public constant returns (uint) {\n      return totalTokens;\n    }\n\n    /* to query the total number of tokens\n     */\n    function getBalanceTokens() public constant returns (uint) {\n      return balanceTokens;\n    }\n\n    /* to query the total number of tokens sold\n     */\n    function getTokensSold() public constant returns (uint) {\n      return totalTokens - balanceTokens;\n    }\n\n    /* to query the total number of tokens sold\n     */\n    function getTokenPrice() public constant returns (uint) {\n      return tokenPrice;\n    }\n\n    function getBalance() public constant returns (uint) {\n      return tokenHolderInfo[msg.sender].balance;\n    }\n\n    function getBalanceOfAddress(address _holderAddress) public constant returns (uint) {\n      return tokenHolderInfo[_holderAddress].balance;\n    }\n\n\n    // removed onlyOwner\n    function getBalance(address _holderAddress) public constant returns (uint) {\n      return tokenHolderInfo[_holderAddress].balance;\n    }\n\n    function getNumberOfTokenHolders() public constant returns (uint) {\n      return numberOfTokenHolder;\n    }\n    /*\n     Allow token owner to convert token back to ether and transfer\n     it back to his account.\n     For example, 1 ether = 100 tokens\n     user redeem 75 tokens, he will get back .75 ethers less gas\n     */\n    function redeemToken() public returns (uint) {\n      // check there is a positive balance for msg.sender\n      uint tokenBalance = getBalance();\n      require(tokenBalance > 0);\n      // check there is sufficient ether balance in contract\n      uint weiAmt = tokenBalance * tokenPrice;\n      require(this.balance > weiAmt);\n      // transfer the amount of ether back to msg.sender address\n      tokenHolderInfo[msg.sender].balance = 0;\n      // decrement the numberOfTokenHolder by 1\n      numberOfTokenHolder--;\n      msg.sender.transfer(weiAmt);\n      // increase the balance coin by the number of redeemed coins\n      balanceTokens += tokenBalance;\n      // return result = ether amount\n      return weiAmt;\n    }\n\n    /* All the ether that are deposited into the contract to purchase SageCoin.\n     This method transfer the coins to the owner of the contract\n     */\n    function withdrawFund() onlyOwner public {\n      owner.transfer(this.balance);\n    }\n\n    /* transfer coins from one holder to another\n     */\n    function transfer(address sender, address _recipient, uint _numberOfTokens) onlyWhitelist public returns (uint) {\n      // check msg.sender has sufficient coins\n      require(getBalanceOfAddress(sender)>=_numberOfTokens);\n      // check receipient has a tokenHolder record, if not create new record and record the transfer\n\n      TokenHolder storage holder = tokenHolderInfo[_recipient];\n      if (holder.holderAddress == 0x0) {\n        tokenHolderInfo[_recipient] = TokenHolder(_recipient, _numberOfTokens);\n        numberOfTokenHolder++;\n      }\n      else {\n        holder.balance += _numberOfTokens;\n      }\n      tokenHolderInfo[sender].balance -= _numberOfTokens;\n      if (tokenHolderInfo[sender].balance == 0) {\n        numberOfTokenHolder--;\n      }\n      transferTokenEvent(msg.sender, _recipient, _numberOfTokens);\n      // returns the number of coins transferred\n\n      return _numberOfTokens;\n    }\n\n    // kill the smart contract\n    function kill() onlyOwner {\n      selfdestruct(owner);\n    }\n\n    function loop(uint x) public constant returns (uint) {\n      return x + 3;\n    }\n}\n",
  "sourcePath": "/Users/avinanta/Ether/event_ecommerce_with_sagecoin/contracts/SageCoin.sol",
  "compiler": {
    "name": "solc",
    "version": "0.4.19+commit.c4cbbb05.Emscripten.clang"
  },
  "schemaVersion": "2.0.0",
  "updatedAt": "2018-04-22T05:18:19.164Z"
}